S020000053414D4432315F4D554C54495F4849445F47454E455249432E7372656302
S1130000F82D0020A96300009964000099640000A1
S113001000000000000000000000000000000000DC
S113002000000000000000000000000099640000CF
S113003000000000000000009964000099640000C2
S113004099640000996400009964000099640000B8
S1130050E55300009964000099640000894F000092
S11300609964000099640000996400009964000098
S11300709964000099640000996400009964000088
S11300809964000099640000996400009964000078
S11300909964000099640000996400009964000068
S11300A09964000099640000996400009964000058
S11300B010B5064C2378002B07D1054B002B02D03A
S11300C0044800E000BF0123237010BDB8030020E2
S11300D000000000B068000008B5084B002B03D0F6
S11300E00748084900E000BF07480368002B03D015
S11300F0064B002B00D0984708BDC0460000000006
S1130100B0680000BC030020B068000000000000DC
S113011080B582B000AF78607B68002B0CD0084BB0
S11301207A685A60064B00229A60C046044B1A68EB
S113013080235B021340F9D0BD4602B080BDC046A7
S113014010E000E080B500AF0020104B9847021C7F
S11301500F4B1A600E4B1A680E4B101CFA229100BA
S11301609847031C1A1C0A4B1A60094B1A68094B5E
S1130170101CFA2291009847031C1A1C064B1A60A3
S1130180064B05221A60BD4680BDC046515F000083
S113019000000020956500000400002010E000E04D
S11301A080B582B000AF786004E0064B1B68181C71
S11301B0054B98477B685A1E7A60002BF5D1BD46E3
S11301C002B080BD000000201101000080B582B0A3
S11301D000AFEFF310833B603B685A425341DBB2FC
S11301E07B6072B6BFF35F8F034B00221A707B688B
S11301F0181CBD4602B080BDB403002080B582B097
S113020000AF78607B685A1E9341DBB2181CBD4670
S113021002B080BD80B582B000AF78607B68181CE6
S1130220064B9847031C002B05D0054B01221A707E
S1130230BFF35F8F62B6BD4602B080BDFD01000012
S1130240B403002080B500AF074B00221A70074B9F
S113025000221A70064B01221A70064B9847031CA1
S1130260181CBD4680BDC046D4030020F003002006
S11302700C040020B134000080B500AF074B00220D
S11302801A70074B00221A70064B01221A70064B93
S11302909847031C181CBD4680BDC046D8030020E7
S11302A0F40300200D040020C934000080B500AF21
S11302B0074B00221A70074B00221A70064B0122CA
S11302C01A70064B9847031C181CBD4680BDC046D7
S11302D0DC030020F80300200E040020E1340000B9
S11302E080B500AF074B00221A70074B00221A702A
S11302F0064B01221A70064B9847031C181CBD4676
S113030080BDC046E0030020FC0300200F04002051
S1130310F934000080B500AF074B00221A70074B78
S113032000221A70064B01221A70064B9847031CD0
S1130330181CBD4680BDC046E40300200004002014
S1130340100400201135000080B500AF074B0022D7
S11303501A70074B00221A70064B01221A70064BC2
S11303609847031C181CBD4680BDC046E803002006
S113037004040020110400202935000080B500AFDA
S1130380074B00221A70074B00221A70064B0122F9
S11303901A70064B9847031C181CBD4680BDC04606
S11303A0EC03002008040020120400204135000062
S11303B080B500AF014B9847BD4680BD593500005C
S11303C080B500AF014B9847BD4680BD6D35000038
S11303D080B500AF014B9847BD4680BD8135000014
S11303E080B500AF014B9847BD4680BD95350000F0
S11303F080B500AF014B9847BD4680BDA9350000CC
S113040080B500AF014B9847BD4680BDBD350000A7
S113041080B500AF014B9847BD4680BDD135000083
S113042098B500AF04480549054A064B064CA04759
S1130430031C181CBD4698BDD4030020F003002003
S113044090010020A90500005154000098B500AFA8
S113045004480549054A064B064CA047031C181CD2
S1130460BD4698BDD8030020F4030020B801002045
S1130470F90500005154000098B500AF044805493F
S1130480054A064B064CA047031C181CBD4698BDE4
S1130490DC030020F8030020E001002049060000EE
S11304A05154000098B500AF04480549054A064B6D
S11304B0064CA047031C181CBD4698BDE003002051
S11304C0FC0300200802002099060000515400009B
S11304D098B500AF04480549054A064B064CA047A9
S11304E0031C181CBD4698BDE40300200004002032
S11304F030020020E90600005154000098B500AF16
S113050004480549054A064B064CA047031C181C21
S1130510BD4698BDE80300200404002058020020D2
S1130520390700005154000098B500AF044805494C
S1130530054A064B064CA047031C181CBD4698BD33
S1130540EC0300200804002080020020890700003A
S11305505154000080B500AF0023181CBD4680BD77
S113056080B500AF0023181CBD4680BD80B500AF28
S11305700023181CBD4680BD80B500AF0023181CA5
S1130580BD4680BD80B500AF0023181CBD4680BDAC
S113059080B500AF0023181CBD4680BD80B500AFF8
S11305A00023181CBD4680BD80B500AF0F4B5B888F
S11305B01B0A9BB2032B15D10C4B5A88FF23134003
S11305C09BB2002B0ED1094BDB88042B0AD1074BBD
S11305D0074A9A60054B074A1A61044B04229A8120
S11305E0012300E00023181CBD4680BD9C0C0020A4
S11305F0D4050020E10C000080B500AF0F4B5B88F0
S11306001B0A9BB2032B15D10C4B5A88FF231340B2
S11306109BB2002B0ED1094BDB88042B0AD1074B6C
S1130620074A9A60054B074A1A61044B04229A81CF
S1130630012300E00023181CBD4680BD9C0C002053
S1130640D8050020090D000080B500AF0F4B5B8872
S11306501B0A9BB2032B15D10C4B5A88FF23134062
S11306609BB2002B0ED1094BDB88042B0AD1074B1C
S1130670074A9A60054B074A1A61044B04229A817F
S1130680012300E00023181CBD4680BD9C0C002003
S1130690DC050020310D000080B500AF0F4B5B88F6
S11306A01B0A9BB2032B15D10C4B5A88FF23134012
S11306B09BB2002B0ED1094BDB88042B0AD1074BCC
S11306C0074A9A60054B074A1A61044B04229A812F
S11306D0012300E00023181CBD4680BD9C0C0020B3
S11306E0E0050020590D000080B500AF0F4B5B887A
S11306F01B0A9BB2032B15D10C4B5A88FF231340C2
S11307009BB2002B0ED1094BDB88042B0AD1074B7B
S1130710074A9A60054B074A1A61044B04229A81DE
S1130720012300E00023181CBD4680BD9C0C002062
S1130730E4050020810D000080B500AF0F4B5B88FD
S11307401B0A9BB2032B15D10C4B5A88FF23134071
S11307509BB2002B0ED1094BDB88042B0AD1074B2B
S1130760074A9A60054B074A1A61044B04229A818E
S1130770012300E00023181CBD4680BD9C0C002012
S1130780E8050020A90D000080B500AF0F4B5B8881
S11307901B0A9BB2032B15D10C4B5A88FF23134021
S11307A09BB2002B0ED1094BDB88042B0AD1074BDB
S11307B0074A9A60054B074A1A61044B04229A813E
S11307C0012300E00023181CBD4680BD9C0C0020C2
S11307D0EC050020D10D000090B587B002AF786021
S11307E0234B1B7801225340DBB2002B01D00023A2
S11307F039E0204B9847031CFB601F4B181C002159
S113080040221E4B98471C4A7B68111C1A1C40232B
S1130810081C111C1A1C1A4B9847174B194A0092B2
S1130820812000211A1C4023174CA047031C5A1E88
S11308309341DBB201225340DBB21A1C0123134063
S1130840DAB20B4B1A70FB68181C104B9847084B14
S11308501B785A1E9341DBB201225340DBB21A1CAF
S113086001231340DBB2181CBD4605B090BDC04641
S11308700C040020CD010000140400209367000044
S113088081670000F90D0000E52700001502000053
S113089090B587B002AF7860234B1B780122534098
S11308A0DBB2002B01D0002339E0204B9847031C16
S11308B0FB601F4B181C002140221E4B98471C4A0A
S11308C07B68111C1A1C4023081C111C1A1C1A4B8F
S11308D09847174B194A0092822000211A1C402382
S11308E0174CA047031C5A1E9341DBB2012253400C
S11308F0DBB21A1C01231340DAB20B4B1A70FB68EB
S1130900181C104B9847084B1B785A1E9341DBB2B6
S113091001225340DBB21A1C01231340DBB2181C22
S1130920BD4605B090BDC0460D040020CD010000B9
S11309305404002093670000816700001D0E00002E
S1130940E52700001502000090B587B002AF78607B
S1130950234B1B7801225340DBB2002B01D0002330
S113096039E0204B9847031CFB601F4B181C0021E7
S113097040221E4B98471C4A7B68111C1A1C4023BA
S1130980081C111C1A1C1A4B9847174B194A009241
S1130990832000211A1C4023174CA047031C5A1E15
S11309A09341DBB201225340DBB21A1C01231340F2
S11309B0DAB20B4B1A70FB68181C104B9847084BA3
S11309C01B785A1E9341DBB201225340DBB21A1C3E
S11309D001231340DBB2181CBD4605B090BDC046D0
S11309E00E040020CD010000940400209367000051
S11309F081670000410E0000E52700001502000099
S1130A0090B587B002AF7860234B1B780122534026
S1130A10DBB2002B01D0002339E0204B9847031CA4
S1130A20FB601F4B181C002140221E4B98471C4A98
S1130A307B68111C1A1C4023081C111C1A1C1A4B1D
S1130A409847174B194A0092842000211A1C40230E
S1130A50174CA047031C5A1E9341DBB2012253409A
S1130A60DBB21A1C01231340DAB20B4B1A70FB6879
S1130A70181C104B9847084B1B785A1E9341DBB245
S1130A8001225340DBB21A1C01231340DBB2181CB1
S1130A90BD4605B090BDC0460F040020CD01000046
S1130AA0D40400209367000081670000650E0000F5
S1130AB0E52700001502000090B587B002AF78600A
S1130AC0234B1B7801225340DBB2002B01D00023BF
S1130AD039E0204B9847031CFB601F4B181C002176
S1130AE040221E4B98471C4A7B68111C1A1C402349
S1130AF0081C111C1A1C1A4B9847174B194A0092D0
S1130B00852000211A1C4023174CA047031C5A1EA1
S1130B109341DBB201225340DBB21A1C0123134080
S1130B20DAB20B4B1A70FB68181C104B9847084B31
S1130B301B785A1E9341DBB201225340DBB21A1CCC
S1130B4001231340DBB2181CBD4605B090BDC0465E
S1130B5010040020CD01000014050020936700005C
S1130B6081670000890E0000E527000015020000DF
S1130B7090B587B002AF7860234B1B7801225340B5
S1130B80DBB2002B01D0002339E0204B9847031C33
S1130B90FB601F4B181C002140221E4B98471C4A27
S1130BA07B68111C1A1C4023081C111C1A1C1A4BAC
S1130BB09847174B194A0092862000211A1C40239B
S1130BC0174CA047031C5A1E9341DBB20122534029
S1130BD0DBB21A1C01231340DAB20B4B1A70FB6808
S1130BE0181C104B9847084B1B785A1E9341DBB2D4
S1130BF001225340DBB21A1C01231340DBB2181C40
S1130C00BD4605B090BDC04611040020CD010000D2
S1130C10540500209367000081670000AD0E0000BA
S1130C20E52700001502000090B587B002AF786098
S1130C30234B1B7801225340DBB2002B01D000234D
S1130C4039E0204B9847031CFB601F4B181C002104
S1130C5040221E4B98471C4A7B68111C1A1C4023D7
S1130C60081C111C1A1C1A4B9847174B194A00925E
S1130C70872000211A1C4023174CA047031C5A1E2E
S1130C809341DBB201225340DBB21A1C012313400F
S1130C90DAB20B4B1A70FB68181C104B9847084BC0
S1130CA01B785A1E9341DBB201225340DBB21A1C5B
S1130CB001231340DBB2181CBD4605B090BDC046ED
S1130CC012040020CD010000940500209367000069
S1130CD081670000D10E0000E52700001502000026
S1130CE080B500AF054B9B89042B00D003E0044B77
S1130CF0181C044B9847BD4680BDC0469C0C002080
S1130D00D4050020E535000080B500AF054B9B8974
S1130D10042B00D003E0044B181C044B9847BD4639
S1130D2080BDC0469C0C0020D8050020F53500008D
S1130D3080B500AF054B9B89042B00D003E0044B26
S1130D40181C044B9847BD4680BDC0469C0C00202F
S1130D50DC0500200536000080B500AF054B9B89FB
S1130D60042B00D003E0044B181C044B9847BD46E9
S1130D7080BDC0469C0C0020E00500201536000014
S1130D8080B500AF054B9B89042B00D003E0044BD6
S1130D90181C044B9847BD4680BDC0469C0C0020DF
S1130DA0E40500202536000080B500AF054B9B8983
S1130DB0042B00D003E0044B181C044B9847BD4699
S1130DC080BDC0469C0C0020E8050020353600009C
S1130DD080B500AF054B9B89042B00D003E0044B86
S1130DE0181C044B9847BD4680BDC0469C0C00208F
S1130DF0EC0500204536000080B582B000AF3960B4
S1130E00FB1D011C1970BB1D1A70034B01221A70C3
S1130E10BD4602B080BDC0460C04002080B582B03F
S1130E2000AF3960FB1D011C1970BB1D1A70034B08
S1130E3001221A70BD4602B080BDC0460D040020D8
S1130E4080B582B000AF3960FB1D011C1970BB1D59
S1130E501A70034B01221A70BD4602B080BDC04611
S1130E600E04002080B582B000AF3960FB1D011C68
S1130E701970BB1D1A70034B01221A70BD4602B0D3
S1130E8080BDC0460F04002080B582B000AF396039
S1130E90FB1D011C1970BB1D1A70034B01221A7033
S1130EA0BD4602B080BDC0461004002080B582B0AB
S1130EB000AF3960FB1D011C1970BB1D1A70034B78
S1130EC001221A70BD4602B080BDC0461104002044
S1130ED080B582B000AF3960FB1D011C1970BB1DC9
S1130EE01A70034B01221A70BD4602B080BDC04681
S1130EF01204002080B500AF014B181CBD4680BD14
S1130F00A467000080B500AF024B1B68181CBD46E7
S1130F1080BDC0460006002080B500AF074B1B68AB
S1130F201A68064B1B681B689978DB781B020B4315
S1130F309BB2D318181CBD4680BDC046FC050020DA
S1130F4080B584B000AF78600A1CFB1C1A70124B89
S1130F509847031CFB607B681B787A68D3187B6016
S1130F6011E07B685B78042B00D110E07B685B7830
S1130F70FA1C12789A4201D17B6809E07B681B78DD
S1130F807A68D3187B60FA687B689A42E9D80023B0
S1130F90181CBD4604B080BD190F000080B584B094
S1130FA000AF0A1CFB1D011C1970BB1D1A70204BDD
S1130FB01B78002B01D1002336E01E4B1B681B68F5
S1130FC01B79FA1D12789A4201D300232CE0194BA5
S1130FD01B681A68184B1A60184B9847031CFB606F
S1130FE01CE0154B1B685B78042B0FD1124B1B685C
S1130FF09B78FA1D12789A4208D10F4B1B68DB7854
S1131000BA1D12789A4201D101230DE00A4B1A68E5
S1131010094B1B681B78D218074B1A60064B1B68D8
S1131020FA689A42DDD80023181CBD4604B080BD7E
S1131030F8050020FC05002000060020190F000020
S113104080B584B000AF021CFB1D1A70FB1D1B7819
S1131050181C0021204B9847031C01225340DBB28B
S1131060002B01D0002333E01C4B1B685A68FB1D86
S11310701B789B00D3181B68BB60BB68DB68984770
S1131080031CFA1D1278101C191C134B9847031CDF
S113109001225340DBB2002B01D0002318E0104B97
S11310A01B68FB60FB68181C05210E4B9847031C4A
S11310B0FB60FB68002B05D1C046BB685B689847A2
S11310C0012305E0FB689B78181C074B9847E9E768
S11310D0181CBD4604B080BD9D0F0000FC05002017
S11310E000060020410F00008124000080B584B078
S11310F000AF0A1CFB1D011C1970BB1D1A70FB1DDF
S11311001A78BB1D1B78101C191C204B9847031C14
S113111001225340DBB2002B01D0002331E01C4BF1
S11311201B68FB60FB68181C05211A4B9847031CBD
S1131130FB60FB68002B0CD1C046174B1B685A6838
S1131140FB1D1B789B00D3181B681B689847031C66
S113115017E0FB689978FB68DA78FB6818795B79A3
S11311601B0203439BB2081C111C1A1C0B4B98470F
S1131170031C01225340DBB2002B01D0002300E00A
S1131180D0E7181CBD4604B080BDC0469D0F0000CA
S113119000060020410F0000FC050020112500007E
S11311A080B500AF014B9847BD4680BDE5320000D5
S11311B080B582B000AF164B1B78002B15D0FB1DF9
S11311C000221A7009E0FB1D1B78181C114B98476C
S11311D0FB1D1A78FB1D01321A700F4B1B681B682C
S11311E01B79FA1D12789A42EDD3094B00221A702A
S11311F00A4B1A88022313409BB2002B01D0084BE0
S11312009847064B01221A80BD4602B080BDC046F5
S1131210F805002041100000FC050020F005002026
S11312207D33000080B582B000AF164B1B78002BD5
S113123025D0FB1D00221A7019E0134B1B685A6855
S1131240FB1D1B789B00D3181B681B69002B09D05E
S11312500D4B1B685A68FB1D1B789B00D3181B6839
S11312601B699847FB1D1A78FB1D01321A70064B47
S11312701B681B681B79FA1D12789A42DDD3BD46A0
S113128002B080BDF8050020FC05002080B500AF49
S1131290074BDB88022B01D0002305E0054B181C0B
S11312A00221054B98470123181CBD4680BDC0464A
S11312B09C0C0020F0050020092B000080B500AF35
S11312C00C4BDB88022B01D000230FE0094B9B88D9
S11312D0DBB2181C084B9847031C1A1C074B1A80D6
S11312E0064B181C0221064B98470123181CBD46C7
S11312F080BDC0469C0C0020B526000004060020DA
S1131300092B000080B500AF0C4BDB88002B01D00B
S113131000230FE0094B5B88012B0AD1084B1B8883
S1131320022293439AB2064B1A80064B9847012334
S113133000E00023181CBD4680BDC0469C0C002064
S1131340F00500207D33000080B500AF0A4BDB8838
S1131350002B01D000230CE0074B5B88002B07D146
S1131360054B9B88DBB2181C044B9847031C00E018
S11313700023181CBD4680BD9C0C002039270000AA
S113138080B500AF0C4BDB88002B01D0002310E0AC
S1131390094B5B88012B02D0C046002309E0074BB0
S11313A01B88022213439AB2044B1A80044B9847B9
S11313B00123181CBD4680BD9C0C0020F0050020B4
S11313C07533000080B500AF0D4BDB88002B01D0D6
S11313D0002312E00A4B5B88002B0DD1084B9B883D
S11313E0DBB2181C074B9847054B9B88DBB2181CD3
S11313F0054B9847031C00E00023181CBD4680BD24
S11314009C0C002011240000E126000080B500AFF0
S1131410054B5B88DAB27F231340DBB2181C034B05
S11314209847BD4680BDC0469C0C0020C52A0000DC
S113143080B500AF064BDB88002B01D0002303E00E
S1131440034B044A1A610123181CBD4680BDC046E3
S11314509C0C00200D14000080B584B000AFFB1D6F
S113146000221A70344B5B881A1CFF231340012B93
S11314700ED002DC002B05D01EE0022B0ED0032B75
S113148012D019E02D4B181C04212D4B98471BE05A
S1131490FB1D04221A702B4BBB6015E0FB1D0F22B1
S11314A01A70294BBB600FE0FB1D0C221A70274BEE
S11314B09847031CBB6007E0254B9847031C002B8F
S11314C000D001E0002333E0FB1D1B78002B2ED05D
S11314D03B1C0F3300221A7013E03B1C0F331B78A4
S11314E03A1C0F321278B9688A18127819495B00CD
S11314F0CB185A803B1C0F331A783B1C0F33013234
S11315001A703A1C0F32FB1D12781B789A42E4D3EE
S1131510FB1D1B780133DBB2DB18DAB20D4B1A70FA
S11315200C4B1B780B4A101C191C054B98470123C4
S1131530181CBD4604B080BD9C0C0020A8020020ED
S1131540092B0000AC020020B4020020F50E0000BC
S113155085330000C402002080B582B000AF394B4F
S11315605A88FB1D1A70374B5B881B0A9BB2DBB28F
S1131570022B12D002DC012B05D052E0032B45D004
S11315800F2B2FD04DE0304B1A682F4B1B681B7864
S1131590101C191C2D4B984745E02B4B1B685B7C9A
S11315A0FA1D12789A4201D3002347E0264B5A6869
S11315B0FB1D1B78DB00D3181A68234B5968FB1DED
S11315C01B78DB00CB181B689978DB781B020B4374
S11315D09BB2101C191C1D4B98471A4B9B68022286
S11315E05A7020E0184B9B68002B01D1002325E0A2
S11315F0154B9A68144B9B689978DB781B020B4354
S11316009BB2101C191C114B98470CE0104B9847C7
S1131610031C01225340DBB2002B01D000230DE058
S113162001E000230AE0074BDA88064B9B899A42C3
S113163003D2044BDA88034B9A810123181CBD465C
S113164002B080BD9C0C0020F8000020092B000093
S11316505914000080B500AF074BDB88012B01D083
S1131660002305E0054B181C0121054B9847012375
S1131670181CBD4680BDC0469C0C0020F805002007
S1131680092B000080B582B000AF2A4BDB88002B09
S113169001D0002349E0284B9847031C002B01D1BB
S11316A0002342E0234B5B881A1CFF231A40234B80
S11316B01B685B7C9A4201DD002336E0204B98478F
S11316C01C4B5B88DAB21F4B1A701E4B1B78002B25
S11316D001D1012329E0194B5A681A4B1B781A4986
S11316E05B18DB00D218194B1A60FB1D00221A701C
S11316F012E0FB1D1B78181C0021154B9847031C96
S113170001225340DBB2002B01D000230DE0FB1D6E
S11317101A78FB1D01321A700C4B1B681B681B796D
S1131720FA1D12789A42E4D30123181CBD4602B074
S113173080BDC0469C0C0020ED2A0000F80000206B
S1131740B1110000F8050020FFFFFF1FFC05002079
S1131750ED10000080B582B000AF214BDB88012B77
S113176001D0002337E01F4B1B78002B01D100234D
S113177031E01B4B9A88FB1D1A701B4B1B681B68BE
S11317801B79FA1D12789A4201D3002323E0FB1D32
S11317901B78181C0021154B9847031C0122534049
S11317A0DBB2002B01D0002315E00F4B1B685A68F5
S11317B0FB1D1B789B00D3181B683B603B68DB68F0
S11317C09847031C1A1C0A4B1A70094B181C012158
S11317D0084B98470123181CBD4602B080BDC04683
S11317E09C0C0020F8050020FC0500209D0F000043
S11317F0F4050020092B000080B582B000AF174B20
S1131800DB88002B01D0002323E0154B1B78002B31
S113181001D100231DE0114B9A88FB1D1A700F4B58
S11318205A88BB1D1A70FB1D1B78181C0D4B98475A
S1131830031C01225340DBB2002B01D0002308E03B
S1131840FB1D1A78BB1D1B78101C191C064B9847EE
S1131850031C181CBD4602B080BDC0469C0C002071
S1131860F805002041100000ED10000080B500AF25
S1131870484B1B78DBB25BB2002B41DA454BDB886B
S1131880002B01D1002382E0424B1B781A1C1F233A
S1131890134014D13F4B5B78062B08D0082B0AD099
S11318A0002B00D00BE03C4B9847031C6FE03B4BF4
S11318B09847031C6BE03A4B9847031C67E0354B91
S11318C01B781A1C1F231340012B08D1314B5B7862
S11318D00A2B00D003E0334B9847031C57E02D4BF1
S11318E01B781A1C1F231340022B4FD1294B5B7802
S11318F0002B01D0C04649E02B4B9847031C46E01F
S1131900244B1B781A1C1F23134019D1214B5B78DD
S1131910092B14D89A00254BD3181B689F46244BD7
S11319209847031C33E0234B9847031C2FE0224BBA
S11319309847031C2BE0214B9847031C27E0C04623
S1131940144B1B781A1C1F231340012B08D1114B75
S11319505B780B2B00D003E0194B9847031C16E06F
S11319600C4B1B781A1C1F231340022B0ED1094B5E
S11319705B78012B02D0032B04D007E0114B98476E
S1131980031C04E0104B9847031C00E00023181CC0
S1131990BD4680BD9C0C00208D120000591500002E
S11319A05516000055170000BD120000B467000072
S11319B03114000005130000811300008516000097
S11319C0F917000049130000C513000080B582B068
S11319D000AF224B1B78002B01D100233AE0204BAF
S11319E09A88FB1D1A701F4B1B681B681B79FA1D14
S11319F012789A4201D300232CE0FB1D1B78181C9B
S1131A000021194B9847031C01225340DBB2002BE1
S1131A1001D000231EE0134B1B685A68FB1D1B7882
S1131A209B00D3181B683B603B68DB689847031C2A
S1131A30FA1D1278101C191C0B4B9847031C012229
S1131A405340DBB2002B01D0002303E03B689B68CA
S1131A509847031C181CBD4602B080BDF805002041
S1131A609C0C0020FC0500209D0F000080B582B076
S1131A7000AF214B1B78002B01D1002338E01F4B12
S1131A809A88FB1D1A70FB1D00221A7027E01C4B5C
S1131A901B685A68FB1D1B789B00D3181B683B60AE
S1131AA03B68DB689847031CFA1D1278101C191C4C
S1131AB0144B9847031C01225340DBB2002B01D086
S1131AC0002315E03B689B689847031C002B01D05A
S1131AD001230DE0FB1D1A78FB1D01321A70084B1F
S1131AE01B681B681B79FA1D12789A42CFD3002316
S1131AF0181CBD4602B080BDF80500209C0C0020D7
S1131B00FC0500209D0F000080B500AF204B002293
S1131B109A811F4B00221A611D4B00225A611C4BF3
S1131B201B78DBB25BB2002B05DA194BDB88002B88
S1131B3001D1002329E0164B1B781A1C60231340A3
S1131B4006D1144B9847031C002B01D001231CE041
S1131B500F4B1B781A1C1F231340012B06D10E4B6D
S1131B609847031C002B01D001230EE0084B1B787F
S1131B701A1C1F231340022B06D1084B9847031C41
S1131B80002B01D0012300E00023181CBD4680BDBA
S1131B909C0C00206D180000CD1900006D1A000087
S1131BA080B582B000AF78607B6800221A70BD46B1
S1131BB002B080BD80B582B000AF021C3960FB1D4D
S1131BC01A70FB1D1B78012B0AD0022B0FD0002B9F
S1131BD014D10E4B0D4A91693A680A439A610FE099
S1131BE00A4B0A4AD1693A680A43DA6108E0074BAA
S1131BF0064A116A3A680A431A6201E0172300E0B0
S1131C000023181CBD4602B080BDC046000400403D
S1131C1080B582B000AF021CFB1D1A70064BFA1D82
S1131C201278111C1F220A400121081C9040021C3A
S1131C301A60BD4602B080BD00E100E080B582B00C
S1131C4000AF0F4B3B6000237B6011E07B689B007F
S1131C500822D219D318083B1B685B78DBB2DBB2CD
S1131C605BB2002B01DA012306E07B6801337B6061
S1131C707B68002BEAD00023181CBD4602B080BD4F
S1131C800018004080B584B000AF2C4B7B6000206E
S1131C9040212B4B98473B1C181C2A4B98473B1C54
S1131CA000221A703B1C0520191C274B984705205D
S1131CB0264B98470023FB6016E0FB689B0010212D
S1131CC0C919CB180C3B1A68FB689B001021C91971
S1131CD0CB180C3B1B681B78DBB201210B43DBB236
S1131CE01370FB680133FB60FB68002BE5D0C04632
S1131CF0174B9847031C002BFAD13B1C0B330022D3
S1131D001A700DE03B1C0B331A78124B9200002121
S1131D10D1503B1C0B331A783B1C0B3301321A7025
S1131D203B1C0B331B780F2BECD904200A4B984730
S1131D300A4B9847BD4604B080BDC0460018004019
S1131D40B51B0000A11B00003D6000007D60000089
S1131D503D1C000034090020111C0000611D00001E
S1131D6080B582B000AF144B3B6000237B6016E06B
S1131D707B689B000821C919CB18083B1A687B684B
S1131D809B000821C919CB18083B1B681B78DBB2E0
S1131D9002210B43DBB213707B6801337B607B68E9
S1131DA0002BE5D0C046054B9847031C002BFAD105
S1131DB0BD4602B080BDC046001800403D1C000076
S1131DC080B582B000AFEFF310833B603B685A42AA
S1131DD05341DBB27B6072B6BFF35F8F034B0022CB
S1131DE01A707B68181CBD4602B080BDB403002085
S1131DF080B582B000AF78607B685A1E9341DBB235
S1131E00181CBD4602B080BD80B582B000AF7860BA
S1131E107B68181C064B9847031C002B05D0054B08
S1131E2001221A70BFF35F8F62B6BD4602B080BD57
S1131E30F11D0000B403002080B582B000AF7860CB
S1131E407B681A687B681B681B899BB201218B43E2
S1131E509BB21381BD4602B080BDC04680B582B03E
S1131E6000AF78607B681B689A7A7F231340DBB2EB
S1131E70181CBD4602B080BD80B582B000AF78604A
S1131E800A1CFB1C1A707B681B68FA1C12788021E0
S1131E9049420A43D2B29A72BD4602B080BDC046DE
S1131EA080B582B000AF78600A1CFB1C1A707B6896
S1131EB01B68FA1C117803220A40D1B203220A409B
S1131EC092021889034901400A431A81BD4602B0AF
S1131ED080BDC046FFF3FFFF80B584B000AF021C95
S1131EE0FB1D1A70FB1D1B780B4AD35CFF2B00D122
S1131EF0FEE70A4B9847031CFB60FB1D1B78064A50
S1131F00D25C0132D1B2044AD154FB68181C044B90
S1131F109847BD4604B080BD2C090020C11D0000B7
S1131F20091E000080B584B000AF021CFB1D1A70AE
S1131F30FB1D1B780B4AD35C002B00D1FEE70A4B38
S1131F409847031CFB60FB1D1B78064AD25C013AD0
S1131F50D1B2044AD154FB68181C044B9847BD46BF
S1131F6004B080BD2C090020C11D0000091E000022
S1131F7080B500AF0B4B9B8C9BB21A1C20231340E3
S1131F8007D1C046074BDA68D0231340D02BF9D1D0
S1131F9005E0C046034BDA6810231340FAD0BD466F
S1131FA080BDC0460008004080B584B000AF021C6C
S1131FB0FB1D1A703A1C0C32164B111C1A1C0423FC
S1131FC0081C111C1A1C144B9847144B1B78FA1D3F
S1131FD012789A421BD0FB1D1B78002B07D0FB1DE7
S1131FE01B783A1C0C32D35C181C0D4B98470B4BD6
S1131FF01B78002B07D0094B1B783A1C0C32D35C9E
S1132000181C084B9847054BFA1D12781A70BD46E8
S113201004B080BDDC670000816700002407002055
S1132020D91E0000251F000080B582B000AF021C3D
S1132030FB1D1A70FB1D1A780F2313405A00FB1D59
S11320401B78DB09DBB2D3189A1E131C9B009B1868
S11320509B00034A9B18181CBD4602B080BDC046B5
S11320600C06002090B589B000AF78607B68BB6136
S11320703B1C1733BA6992791A703B1C17331B78CF
S1132080181C554B9847031C3B613B1C0F333A1CEF
S1132090173211780F220A401A703B1C0C333A692C
S11320A0128A1A803B1C0A33BA6952881A803B6927
S11320B0DA683B1C0A331B88D2183B69DA603B6937
S11320C0DA683B699B689A4253D03B699B6899B232
S11320D03B69DB689AB23B1C1E338A1A1A803B1C8C
S11320E01E331A883D4B9A420ED93B1C0C331A8876
S11320F03A493B4B081C111C98470B1C9AB23B1CD9
S11321001E3336498A1A1A803B699B7C9B07DB0F76
S1132110DBB2002B0FD03A1C1E323B1C0C3311884F
S11321201A88304B081C111C98470B1C9BB2002BBF
S113213001D1012300E00023DBB21A1C0123134068
S1132140D9B23B6901220A409218997C022081434A
S11321500A439A743B695A683B69DB68D2183B1C92
S11321601E331B882048391C0F3109781F4CA047A7
S11321702FE03B699B7C9B07DB0FDBB2002B14D069
S11321803B699A7C02218A439A743B695A683B6989
S1132190DB68D31814493A1C0F321278081C111C3E
S11321A01A1C0023114CA04713E03B699A7C0121BF
S11321B08A439A743B691B68002B0AD03B691C68EC
S11321C03B69DA683B1C17331B780020111C1A1C6E
S11321D0A047BD4609B090BD29200000FF1F0000A4
S11321E0DD6600001D660000340B00205548000029
S11321F0B0B588B000AF78607B68BB613B1C173317
S1132200BA6992791A703B1C17331B78181C674BF8
S11322109847031C3B613B1C0F333A1C173211785F
S11322200F220A401A703B1C0C333A69128A1A8036
S11322303B1C0A33BA6912881A803B699B7C5B0792
S1132240DB0FDBB2002B1AD03B695A683B69DB68B1
S1132250D5183B1C0F331B78013B9A01544BD418FF
S11322603B6999683B1C0C331A88524B081C111C9F
S113227098470B1C281C211C1A1C4F4B98473B6980
S1132280DA683B1C0A331B88D2183B69DA603B6965
S1132290DA683B699B689A4203D93B699A683B694F
S11322A0DA60BB699B883A1C0A3212889A4265D16B
S11322B03B69DA683B699B689A425FD03B699B68DB
S11322C099B23B69DB689AB23B1C1E338A1A1A80A6
S11322D03B1C1E331A88394B9A420FD93B1C0C33D2
S11322E01A883649364B081C111C98470B1C9AB2A5
S11322F03B1C1E3331498A1A1A8012E03A1C1E32E2
S11323003B1C0C3311881A882A4B081C111C984753
S11323100B1C9AB23B1C1E33391C1E3109888A1AC5
S11323201A803A1C1E323B1C0C3312881B889A42BA
S113233015D23B699A7C04210A439A743B1C0F33DF
S11323401B78013B9A011A4BD2183B1C0C331B8897
S11323501C48391C0F3109781B4CA04722E03B690B
S11323605A683B69DB68D2183B1C1E331B8815482E
S1132370391C0F310978144CA04713E03B699A7C4F
S113238001218A439A743B691B68002B0AD03B697C
S11323901C683B69DA683B1C17331B780020111C4E
S11323A01A1CA047BD4608B0B0BDC0462920000095
S11323B0740900201D66000081670000FF1F0000F3
S11323C0DD660000340B00200D49000080B584B0A8
S11323D000AF786039603B68FB603B1C0B33FA68E4
S11323E092791A703B1C0B331B785BB2002B04DA16
S11323F03B68181C044B984703E03B68181C034BCC
S11324009847BD4604B080BD65200000F12100005E
S113241090B585B000AF021CFB1D1A70154AFB1D58
S11324201B78101C191C144B9847FB1D1B78181C97
S1132430124B9847031CFB60FB689B7CDB07DB0F9C
S1132440DBB2002B00D112E0FB689A7C01218A43A5
S11324509A74FB681B68002B09D0FB681C68FB6836
S1132460DA68FB1D1B780120111C1A1CA047BD460D
S113247005B090BD340B0020F54500002920000074
S113248080B584B000AF021CFB1D1A703B1C0833DE
S1132490181C194B98473B1C0F33FA1D11780F2257
S11324A00A401A70FB1D1B78181C144B98473B1CE0
S11324B00833FA1D12781A703B1C08330022DA70B4
S11324C00F4A3B1C0833101C191C0E4B98470C4A2E
S11324D03B1C0F331B78101C191C00220A4B984715
S11324E0074AFB1D1B78101C191C0022074B984738
S11324F0BD4604B080BDC046F94000001124000070
S1132500340B002021410000613D00005D3F0000CC
S113251090B587B000AFFB1D1870BB1D19703B1D33
S11325201A803B1C0C33181C5A4B98473B1C0C3329
S1132530FA1D12781A703B1D1B88082B04D83B1C0B
S11325400C3300225A7045E03B1D1B88102B04D825
S11325503B1C0C3301225A703CE03B1D1B88202B92
S113256004D83B1C0C3302225A7033E03B1D1B88F9
S1132570402B04D83B1C0C3303225A702AE03B1D29
S11325801B88802B04D83B1C0C3304225A7021E096
S11325903B1D1A8880235B009A4204D83B1C0C33F1
S11325A005225A7016E03B1D1A8880239B009A422C
S11325B004D83B1C0C3306225A700BE03B1D1A88CE
S11325C0354B9A4204D83B1C0C3307225A7001E065
S11325D000235BE0FB1D1B78181C304B9847031C41
S11325E07B617B693A1D12881A82BB1DBA1D117862
S11325F003220A401A70BB1D1B78012B04D13B1C1B
S11326000C330222DA7013E0BB1D1B78022B04D1B9
S11326103B1C0C330322DA700AE0BB1D1B78032B2E
S113262004D13B1C0C330422DA7001E000232DE0BA
S11326303B1C1333FA1D11780F220A401A70184AF2
S11326403B1C0C33101C191C164B9847031C002B05
S113265001D000231AE012493B1C13331A78124BA1
S1132660081C111C0022114CA0470D4AFB1D1B78AD
S1132670101C191C00220E4B9847094AFB1D1B789D
S1132680101C191C01220A4B98470123181CBD4633
S113269007B090BDF9400000FF03000029200000AE
S11326A0340B002021410000CD230000ED3C00004C
S11326B0CD3D000080B582B000AF021CFB1D1A7036
S11326C0054AFB1D1B78101C191C044B9847031C5E
S11326D0181CBD4602B080BD340B002075460000B6
S11326E080B584B000AF021CFB1D1A703B1C0F3375
S11326F0FA1D11780F220A401A703B1C0F331B7805
S1132700072B01D900230CE0084AFB1D1B78101C81
S1132710191C074B9847FB1D1B78181C054B984741
S11327200123181CBD4604B080BDC046340B0020F4
S1132730E54600001124000080B584B000AF021CFF
S1132740FB1D1A703B1C0F33FA1D11780F220A402F
S11327501A703B1C0F331B78072B01D900231DE093
S1132760FB1D1B78181C0F4B9847031CBB600E4ABB
S1132770FB1D1B78101C191C0C4B9847BB689B7CD9
S1132780DB07DB0FDBB2012B07D1BB689A7C01218D
S11327908A439A74BB681B6898470123181CBD467A
S11327A004B080BD29200000340B00203D47000008
S11327B080B500AF074B05221A70074B181C802107
S11327C0064B9847044B181C0021054B9847BD46FF
S11327D080BDC04606060020340B0020E5460000FC
S11327E03D47000090B589B000AFBA607B603B1CE8
S11327F00F33021C1A703B1C0E330A1C1A703B1C4C
S11328001D333A1C0F3211780F220A401A703B1CF8
S11328101D331B78072B08D83B1C0F331B78181C5F
S11328209D4B9847031C002B01D0002330E13B1C37
S11328300F331B78181C994B9847031CBB61984BAA
S11328409847031C7B61BB699B7CDB07DB0FDBB216
S1132850012B05D17B69181C924B9847002317E183
S1132860BB699A7C01210A439A747B69181C8D4BBD
S11328709847BB69BA685A60BB697A689A60BB6951
S11328800022DA60BB693A6B1A60BB693A1C0E32EB
S1132890117801220A409218997C022081430A434C
S11328A09A74BB699A7C04218A439A743B1C0F3343
S11328B01B785BB2002B00DB77E0BB699B68002BC5
S11328C03FD0BB699A683B1C1E331A803B1C1E33E5
S11328D01A88754B9A420ED9BB691B8A1A1C724915
S11328E0724B081C111C98470B1C9AB23B1C1E33DC
S11328F06D498A1A1A80BB699B7C9B07DB0FDBB28C
S1132900002B0ED0BB691A8A3B1C1E331988684BF6
S1132910081C111C98470B1C9BB2002B01D10123EE
S113292000E00023DBB21A1C01231340D9B2BB69B7
S113293001220A409218997C022081430A439A7426
S113294023E0BB699B7C9B07DB0FDBB2012B09D126
S1132950BB699A7C02218A439A743B1C1E33002271
S11329601A8012E0BB699A7C01218A439A74BB697C
S11329701B68002B07D0BB691B683A1C0F32127806
S1132980002000219847012382E0BB695A683B1C60
S11329901E331B884748391C1D310978464CA04713
S11329A0031C5A425341DBB272E0BB699B68002BA3
S11329B05CD0BB699A683B1C1E331A803B1C1E33D7
S11329C01A88394B9A420FD9BB691B8A1A1C36499B
S11329D0364B081C111C98470B1C9AB23B1C1E3327
S11329E031498A1A1A8011E0BB691A8A3B1C1E33CA
S11329F019882F4B081C111C98470B1C9AB23B1CBE
S1132A001E33391C1E3109888A1A1A80BB691B8A35
S1132A103A1C1E3212889A4218D2BB699A7C04214D
S1132A200A439A743B1C1D331B78013B9A01234BC8
S1132A30D218BB691B8A1F48391C1D310978204CE8
S1132A40A047031C5A425341DBB221E0BB695A68D8
S1132A503B1C1E331B881748391C1D310978184C40
S1132A60A047031C5A425341DBB211E0BB699A7C74
S1132A7001218A439A74BB691B68002B07D0BB6988
S1132A801B683A1C0F32127800200021984701235A
S1132A90181CBD4609B090BDB526000029200000D1
S1132AA0C11D0000091E0000FF1F0000DD660000BC
S1132AB01D660000340B00205548000074090020F6
S1132AC00D49000080B582B000AF021CFB1D1A70D6
S1132AD0044AFB1D1B78101C191C034B9847BD4668
S1132AE002B080BD340B0020791E000080B500AF19
S1132AF0034B181C034B9847031C181CBD4680BD90
S1132B00340B00205D1E000080B582B000AF7860F9
S1132B100A1CBB1C1A80054B7A689A60034BBA1CCA
S1132B2012889A81BD4602B080BDC0469C0C00202C
S1132B3080B500AF134B1A78134B1A70114B5A78A7
S1132B40114B5A700F4BDB781B029AB20D4B9B78DA
S1132B50D3189AB20C4B5A800A4B5B791B029AB277
S1132B60084B1B79D3189AB2074B9A80054BDB7933
S1132B701B029AB2034B9B79D3189AB2024BDA80A8
S1132B80BD4680BDB40C00209C0C002098B500AF5D
S1132B90094B03221A70094A094B101C191C094BD2
S1132BA09847094B9B68054A101C00211A1C0023F6
S1132BB0064CA047BD4698BD06060020340B0020F5
S1132BC0B40C0020B94900009C0C002055480000BA
S1132BD090B583B000AF304B9989304B1A88BB1D38
S1132BE08A1A1A80BB1D1B88002B2FD12C4B1A88E4
S1132BF02A4B1B88D3189AB2294B1A80264BDA88A1
S1132C00274B1B889A4203D0264B1B78002B09D0F4
S1132C10254B04221A70254A254B101C191C254BE0
S1132C20984735E01C4B5B69002B0FD01A4B5B694E
S1132C309847031C01225340DBB2002B06D1174BEB
S1132C4000221A80BB1D144A92891A80BB1D1B885E
S1132C503F2B06D9BB1D40221A80124B00221A704A
S1132C6002E0104B01221A700B4B9A680B4B1B8825
S1132C70D218BB1D1B880D49081C00210E4CA0470F
S1132C80064B1A88BB1D1B88D3189AB2034B1A80B3
S1132C90BD4603B090BDC0469C0C00200A0600202F
S1132CA0080600202507002006060020340B00201B
S1132CB0B40C0020B94900005548000090B585B017
S1132CC000AF78607B68BB603B1C0E33BA68128827
S1132CD01A80464B9B891A1C454B1B88191C3B1CAC
S1132CE00E331B88CB189A4207DA404B9989404B24
S1132CF01A883B1C0E338A1A1A803C4B9A683C4B48
S1132D001B88D1183B1C0E331B883A4A081C111C23
S1132D101A1C394B9847364B1A883B1C0E331B88B8
S1132D20D3189AB2324B1A803B1C0E331B88402BAB
S1132D300AD12E4BDB881A1C304B1B88191C2C4BD8
S1132D401B88CB189A421ADC294B1A88274B9A8184
S1132D50264B5B69002B0FD0244B5B699847031CFF
S1132D6001225340DBB2002B06D0254B05221A70FA
S1132D700020244B984736E0234B984733E01B4B05
S1132D809A891B4B1B889A4225D1184B5B69002BEF
S1132D9006D11B4B05221A7000201A4B984722E0DB
S1132DA0124B5B699847031C01225340DBB2002B92
S1132DB006D0134B05221A700020124B984712E0DC
S1132DC00E4B1A880A4B1B88D3189AB20B4B1A80E5
S1132DD0074B00221A800D4A064B101C00211A1CB6
S1132DE040230B4CA047BD4605B090BD9C0C002071
S1132DF00A060020B40C00208167000008060020A9
S1132E0006060020E12600008D2B0000340B002074
S1132E100D49000090B585B000AF786039603B681B
S1132E20FB602B4B1B78002B09D02A4B1B69002B12
S1132E3002D0284B1B699847254B00221A70FB6867
S1132E401B88082B02D0244B98473EE0234B98471D
S1132E50234B9847031C01225340DBB2002B02D0C2
S1132E601D4B984731E01B4B1B78DBB25BB2002B48
S1132E7013DA1C4B00221A801B4B00221A80144BBD
S1132E8002221A70194A1A4B101C00211A1C4023E2
S1132E90184CA047184B984717E00E4BDB88002BC3
S1132EA002D1164B984710E00E4B00221A800E4BAD
S1132EB000221A80064B01221A700C4A0C4B101C7B
S1132EC000211A1C40230B4CA047BD4605B090BD01
S1132ED0060600209C0C0020B1270000312B0000C6
S1132EE0091B0000080600200A060020340B0020FD
S1132EF0B40C00200D490000D12B00008D2B0000E4
S1132F0080B584B000AF78607B68FB600A4B1B78A7
S1132F10012B02D1094B98470AE0074B1B78042B7D
S1132F2006D1FB689B79064A101C191C054B98476F
S1132F30BD4604B080BDC046060600208D2B0000AF
S1132F40340B0020E546000080B584B000AF786003
S1132F507B68FB600A4B1B78022B03D1084B0422CD
S1132F601A700AE0064B1B78032B06D1FB689B7989
S1132F70044A101C191C044B9847BD4604B080BD7C
S1132F8006060020340B0020E546000080B584B01E
S1132F9000AF786039603B68FB60FB689B79DBB20B
S1132FA05BB2002B04DA3B68181C054B984703E01E
S1132FB03B68181C034B9847BD4604B080BDC0460F
S1132FC0012F0000492F000080B582B000AF786067
S1132FD039600E4B1B78012B04D13B68181C0C4B39
S1132FE0984710E0094B1B78022B02D1094B9847F4
S1132FF009E0094B1B69002B02D0074B1B6998475A
S1133000024B00221A70BD4602B080BD06060020A5
S1133010BD2C0000D12B00009C0C002090B585B085
S113302000AF78603B1C0C33181C224B98473B1CA8
S11330300C3303225A707A683B1C0C33101C191C85
S11330401D4B98477A681D4B101C191C1C4B984744
S11330507A681C4B101C002102221B4CA0477A6882
S11330601A4B101C00210022174CA0477A68184BF9
S1133070101C00210122144CA0477B68181C00215D
S11330800222144B98477B68181C00210022114B24
S113309098477B68181C002101220E4B98477B68D7
S11330A0181C01210C4B98470C4B00221A70BD468A
S11330B005B090BDF940000021410000B40C00208F
S11330C0B9490000152E0000ED3C0000C92F000096
S11330D08D2F0000CD3D0000A11E0000060600203B
S11330E080B582B000AF78603960094B181C0421A8
S11330F0084B9847064B181C0221074B98470120A0
S1133100064B9847064B9847BD4602B080BDC04663
S1133110340B0020993C00003D3C0000A91F000036
S11331205D33000080B584B000AF786039603B68DF
S1133130FB600A4B181C0621094B9847074B181CC7
S11331400421074B9847054B181C0221054B98474F
S11331500220054B9847BD4604B080BD340B0020C7
S1133160993C00003D3C0000A91F000080B582B0DE
S113317000AF78603960034B9847034B9847BD46CE
S113318002B080BD251200006D33000080B582B00E
S113319000AF78603960074B98477B68181C0021A2
S11331A0054B98477B68181C044B9847BD4602B0F2
S11331B080BDC046B1110000791E00001D30000022
S11331C080B582B000AF78603960104B9847104BDF
S11331D0181C02210F4B98470D4B181C04210E4B51
S11331E098470B4A0D4B101C06211A1C0C4B984790
S11331F0074B181C0621084B98470320094B984796
S1133200094B9847BD4602B080BDC046711F0000FF
S1133210340B0020993C00003D3C000025310000A7
S1133220ED3B0000A91F00006533000080B500AF2E
S11332300320224B9847224B181C224B9847204AC4
S1133240214B101C04211A1C204B98471C4A204B6C
S1133250101C00211A1C1D4B9847194A1D4B101CA9
S113326001211A1C194B9847154A1B4B101C0221AB
S11332701A1C164B9847124B181C0421174B9847DD
S11332800F4B181C0021154B98470D4B181C01219E
S1133290124B98470A4B181C0221104B9847084AB6
S11332A00F4B101C06211A1C084B9847044B181C82
S11332B006210A4B9847BD4680BDC046A91F0000A1
S11332C0340B0020391E0000E1300000ED3B00000B
S11332D06D3100008D310000C13100003D3C000023
S11332E02531000080B582B000AF124B9847031C13
S11332F07B603B1C181C104B98473B1C00229A70A7
S11333000E490F4A3B1C081C111C1A1C0D4B9847F4
S11333100A4B181C0C4B98470C4B984701200C4B3C
S113332098470C4B98477B68181C0B4B9847BD4635
S113333002B080BDC11D0000B94F0000340B002055
S113334000500041E14F0000594F0000711F000080
S1133350A91F00002D320000091E000080B500AF37
S1133360BD4680BD80B500AFBD4680BD80B500AF11
S1133370BD4680BD80B500AFBD4680BD80B500AF01
S1133380BD4680BD80B584B000AFFB1D00221A701D
S11333903D4B5B881A1CFF231340043B062B2ED89D
S11333A09A003A4BD3181B689F46FB1D13221A70D0
S11333B0374BBB6025E0FB1D14221A70354BBB60F4
S11333C01FE0FB1D14221A70334BBB6019E0FB1D78
S11333D014221A70314BBB6013E0FB1D14221A70C7
S11333E02F4BBB600DE0FB1D14221A702D4BBB60EC
S11333F007E0FB1D14221A702B4BBB6001E0002375
S11334003EE0FB1D1B78002B2FD03B1C0F3300220A
S11334101A7013E03B1C0F331B783A1C0F321278DE
S1133420B9688A18127821495B00CB185A803B1C72
S11334300F331A783B1C0F3301321A703A1C0F32C7
S1133440FB1D12781B789A42E4D3FB1D1B780133D1
S1133450DBB2DB18DAB2154B1A70144B1B781A1C4A
S1133460094B9A81084B114A9A60074B9A89064B7B
S1133470DB889A4203D9044BDA88034B9A810123EF
S1133480181CBD4604B080BD9C0C0020E067000001
S1133490E4020020F802002010030020280300208A
S11334A040030020580300207003002088030020FC
S11334B080B500AF034B01221A700123181CBD46CE
S11334C080BDC0462607002080B500AF034B012213
S11334D01A700123181CBD4680BDC0462707002072
S11334E080B500AF034B01221A700123181CBD469E
S11334F080BDC0462807002080B500AF034B0122E1
S11335001A700123181CBD4680BDC046290700203F
S113351080B500AF034B01221A700123181CBD466D
S113352080BDC0462A07002080B500AF034B0122AE
S11335301A700123181CBD4680BDC0462B0700200D
S113354080B500AF034B01221A700123181CBD463D
S113355080BDC0462C07002080B500AF024B00227E
S11335601A70BD4680BDC0462607002080B500AF56
S1133570024B00221A70BD4680BDC04627070020BA
S113358080B500AF024B00221A70BD4680BDC04614
S11335902807002080B500AF024B00221A70BD46F8
S11335A080BDC0462907002080B500AF024B002231
S11335B01A70BD4680BDC0462A07002080B500AF02
S11335C0024B00221A70BD4680BDC0462B07002066
S11335D080B500AF024B00221A70BD4680BDC046C4
S11335E02C07002080B582B000AF7860BD4602B0E1
S11335F080BDC04680B582B000AF7860BD4602B0E1
S113360080BDC04680B582B000AF7860BD4602B0D0
S113361080BDC04680B582B000AF7860BD4602B0C0
S113362080BDC04680B582B000AF7860BD4602B0B0
S113363080BDC04680B582B000AF7860BD4602B0A0
S113364080BDC04680B582B000AF7860BD4602B090
S113365080BDC04680B582B000AF78607B68002230
S11336601A70BD4602B080BD80B582B000AF021CA6
S11336703960FB1D1A70FB1D1B78012B0AD0022B2D
S11336800FD0002B14D10E4B0D4A91693A680A43AE
S11336909A610FE00A4B0A4AD1693A680A43DA612F
S11336A008E0074B064A116A3A680A431A6201E0C5
S11336B0172300E00023181CBD4602B080BDC0469D
S11336C00004004080B582B000AF78607B6880223F
S11336D01A707B6800225A707B6801229A707B689A
S11336E00022DA70BD4602B080BDC04680B582B00B
S11336F000AF021CFB1D1A70064BFA1D1278111C38
S11337001F220A400121081C9040021C1A60BD4679
S113371002B080BD00E100E080B582B000AFBE4BD6
S11337201B681B681B8C9BB21A1CBC4B101C984753
S1133730031C7B607B681F2B00D979E1B64B1B68A7
S11337401A687B6808335B01D318DB79DBB23B6012
S11337503A680323134000D18AE07B680122111CDC
S113376099400B1CDB431A1CAD4B1B681A40AC4B35
S11337701A60A94B1B681A687B6808335B01D3186D
S11337800322DA71A44B1968A8237A688A18D3181B
S11337909B791A1C012313406AD07B68DAB2A14BCF
S11337A01A709D4B1B681B687A6808325201D25C00
S11337B003231340DBB2012B1FD19B4A7B685B01BF
S11337C0D3185B689B049B0C9BB21A1C954B5A80C4
S11337D0954A7B685B01D3185B689B0B9B049B0C2D
S11337E09BB21A1C8F4B9A808F4A7B685B01D3185B
S11337F05A68920B92035A602DE08B4A7B685B01F6
S1133800D3185B689B0B9B049B0C9BB21A1C854BC7
S11338105A80854A7B685B01D3185B689B049B0CC8
S11338209BB21A1C7F4B9A807F4A7B685B01D3183A
S113383059687E4A0A405A607A4B5B88002B0AD149
S1133840794A7B685B01D3185B689B049B0C9BB231
S11338501A1C744B5A80704B1A687B6802331B0124
S1133860D3185A686C4B19686E4B081C191C904786
S11338703A680423134014D07B680122111C994038
S11338800B1CDB431A1C664B1B681A40644B1A6002
S1133890614B1B681A687B6808335B01D3180422E8
S11338A0DA713A68082313403DD07B680122111C69
S11338B099400B1CDB431A1C594B1B681A40584B8C
S11338C01A60554B1B681A687B6808335B01D31870
S11338D00822DA71504B1968A8237A688A18D31819
S11338E09B791A1C022313401DD07B68DAB24D4B1E
S11338F01A704D4A7B685B01D3180833DB889BB28E
S1133900DAB21F231340DAB2464B5A70424B1A689C
S11339107B681B01D31824335A683F4B1968414B09
S1133920081C191C90473A68102313403BD07B684D
S11339300122111C99400B1CDB431A1C384B1B68D9
S11339401A40374B1A60344B1B681A687B6808337B
S11339505B01D3181022DA712F4B1968A8237A68F7
S11339608A18D3189B791A1C042313401BD07B6834
S1133970DAB22C4B1A702C4A7B685B01D3185B6853
S11339809B0B9B049B0C9BB21A1C264B5A80224B0C
S11339901A687B681B01D31828335A681E4B1B68AE
S11339A0181C002190473A682023134000D115E1E8
S11339B07B680122111C99400B1CDB431A1C184B19
S11339C01B681A40164B1A60134B1B681A687B68F5
S11339D008335B01D3182022DA710F4B1968A8232E
S11339E07A688A18D3189B791A1C0823134000D1CB
S11339F0F4E07B68DAB20B4B1A70074B1A687B68E9
S1133A001B01D3182C335A68034B1968054B081C47
S1133A10191C9047E2E0C04630070020F56600001C
S1133A204807002034070020F40C0020FF3F00F07A
S1133A306C4B1B681B689B8B9BB23B603A680423EE
S1133A40134013D0674B1B681B6804229A83654B91
S1133A501A68A523D35C1A1C0123134006D0614BBA
S1133A601B685A685F4B1B68181C90473A68082308
S1133A70134016D05C4B00221A605A4B1B681B681B
S1133A8008229A83574B1A68A523D35C1A1C022375
S1133A90134006D0534B1B689A68524B1B68181C82
S1133AA090473A684023134013D04E4B1B681B6861
S1133AB040229A834B4B1A68A523D35C1A1C10230B
S1133AC0134006D0474B1B685A69464B1B68181CA9
S1133AD090473A682023134013D0424B1B681B685D
S1133AE020229A833F4B1A68A523D35C1A1C08230F
S1133AF0134006D03B4B1B681A693A4B1B68181CD1
S1133B0090473A681023134013D0364B1B681B6848
S1133B1010229A83334B1A68A523D35C1A1C0423FE
S1133B20134006D02F4B1B68DA682E4B1B68181CF9
S1133B3090473A688023134016D02B4B00221A601A
S1133B40284B1B681B6880229A83264B1A68A5237E
S1133B50D35C1A1C2023134006D0224B1B689A699D
S1133B60204B1B68181C90473A6880235B00134065
S1133B7017D01D4B00221A601A4B1B681B68802249
S1133B8052009A83174B1A68A523D35C1A1C40234E
S1133B90134006D0134B1B68DA69124B1B68181CC0
S1133BA090473A6880239B00134017D00E4B0022A5
S1133BB01A600C4B1B681B68802292009A83094B85
S1133BC01A68A523D35CDBB25BB2002B06DA054B83
S1133BD01B681A6A034B1B68181C9047BD4602B049
S1133BE080BDC046300700204807002080B584B05F
S1133BF000AFF8607A603B1C0B330A1C1A703B1C44
S1133C000B331A78FB682E3292007968D150FA6827
S1133C10AA235B00D25A3B1C0B331978064B49008C
S1133C20CB5A134399B2FA68AA235B00D1520023FA
S1133C30181CBD4604B080BDFC67000080B582B08E
S1133C4000AF78600A1CFB1C1A707B681B68FA1CA6
S1133C501178104A49008A5A9A837A68AB235B0028
S1133C60D25AFB1C19780B4B4900CB5A134399B217
S1133C707A68AB235B00D1527B681B68FA1C11780D
S1133C80044A49008A5A1A830023181CBD4602B00C
S1133C9080BDC046FC67000080B582B000AF78608C
S1133CA00A1CFB1C1A707A68AB235B00D35A9BB2C4
S1133CB0FA1C11780C4A49008A5A92B2D24392B241
S1133CC013409BB299B27A68AB235B00D1527B68F4
S1133CD01B68FA1C1178044A49008A5A9A82002304
S1133CE0181CBD4602B080BDFC67000080B584B0DE
S1133CF000AFF8607B603B1C0B3319703B1C0A332C
S1133D001A703B1C0B3319783B1C0A331B78FA6876
S1133D108900CB1834339B00D3187A685A603B1C53
S1133D200B3319783B1C0B331A78F868AC235B000F
S1133D308218D3181A783B1C0A331B780748C35CD3
S1133D401343DAB2F868AC235B004118CB181A703D
S1133D500023181CBD4604B080BDC0460C6800009A
S1133D6080B582B000AF7860FB1C1970BB1C1A7060
S1133D70FB1C1978BB1C1B787A688900CB18343378
S1133D809B00D31800225A60FB1C1978FB1C1A787C
S1133D907868AC235B008218D3181B78DBB2BA1C9A
S1133DA012780948825CD2B2D243D2B21340DBB259
S1133DB0DAB27868AC235B004118CB181A70002380
S1133DC0181CBD4602B080BD0C68000080B584B0EC
S1133DD000AF7860FB1C1970BB1C1A703B1C0F33BE
S1133DE0FA1C11780F220A401A703B1C0F33197801
S1133DF03B1C0F331A787868B0235B008218D31801
S1133E001A78BB1C1B785448C35C1343DAB2786835
S1133E10B0235B004118CB181A70BB1C1B78002B15
S1133E202FD13B1C0F331B78002B0CD17B681968F6
S1133E303B1C0F331A7884235B0052018A18D31871
S1133E4003225A701DE0FB1C1B785BB2002B0CDABA
S1133E507B6819683B1C0F331A7884235B0052017A
S1133E608A18D31802225A700BE07B6819683B1C2D
S1133E700F331A7884235B0052018A18D318012265
S1133E805A70BB1C1B78012B2FD13B1C0F331B78A2
S1133E90002B0CD17B6819683B1C0F331A788423E0
S1133EA05B0052018A18D3180C225A701DE0FB1CC7
S1133EB01B785BB2002B0CDA7B6819683B1C0F3350
S1133EC01A7884235B0052018A18D31808225A7086
S1133ED00BE07B6819683B1C0F331A7884235B0062
S1133EE052018A18D31804225A70BB1C1B78022B67
S1133EF00BD17B6819683B1C0F331A7884235B0051
S1133F0052018A18D31810225A70BB1C1B78032B39
S1133F101DD1FB1C1B785BB2002B0CDA7B68196883
S1133F203B1C0F331A7884235B0052018A18D31880
S1133F3040225A700BE07B6819683B1C0F331A78D7
S1133F4084235B0052018A18D31820225A7000235C
S1133F50181CBD4604B080BD0C68000080B584B058
S1133F6000AF7860FB1C1970BB1C1A703B1C0F332C
S1133F70FA1C11780F220A401A703B1C0F3319786F
S1133F803B1C0F331A787868B0235B008218D3186F
S1133F901B78DBB2BA1C12785648825CD2B2D24388
S1133FA0D2B21340DBB2DAB27868B0235B004118B6
S1133FB0CB181A70BB1C1B78002B2FD13B1C0F3362
S1133FC01B78002B0CD17B6819683B1C0F331A78C3
S1133FD084235B0052018A18D31803221A701DE04F
S1133FE0FB1C1B785BB2002B0CDA7B6819683B1C4A
S1133FF00F331A7884235B0052018A18D3180222E3
S11340001A700BE07B6819683B1C0F331A78842301
S11340105B0052018A18D31801221A70BB1C1B784A
S1134020012B2FD13B1C0F331B78002B0CD17B6849
S113403019683B1C0F331A7884235B0052018A18D9
S1134040D3180C221A701DE0FB1C1B785BB2002BEA
S11340500CDA7B6819683B1C0F331A7884235B00E5
S113406052018A18D31808221A700BE07B68196869
S11340703B1C0F331A7884235B0052018A18D3182F
S113408004221A70BB1C1B78022B0BD17B681968A5
S11340903B1C0F331A7884235B0052018A18D3180F
S11340A010221A70BB1C1B78032B1DD1FB1C1B7820
S11340B05BB2002B0CDA7B6819683B1C0F331A784F
S11340C084235B0052018A18D31840221A700BE033
S11340D07B6819683B1C0F331A7884235B005201F8
S11340E08A18D31820221A700023181CBD4604B065
S11340F080BDC0460C68000080B582B000AF786017
S11341007B6800221A707B6800225A707B68002248
S11341109A707B680122DA70BD4602B080BDC04649
S113412090B585B000AF786039603B6819783B1C66
S11341300F330F220A401A703B681B78DBB2DB098D
S1134140DAB23B1C0E331A703B68DB78042B00D9BF
S1134150F2E19A00DD4BD3181B689F467B681B680D
S11341603A1C0F321278083252010021D154002334
S113417037E27B681B683A1C0F321278083252010E
S1134180D35CDBB21A1C072313402ED17B681B6857
S11341903A1C0F32127808325201D35CDBB21A1C7B
S11341A07023134021D17B681B683A1C0F321278AC
S11341B0083252011121D1547B681A683B1C0F3319
S11341C01B7808335B01D31840225A717B681A6844
S11341D03B1C0F331B7808335B01D31880221A7100
S11341E03B689B78002B02D126E01C23F9E13B1CA1
S11341F00F3318783B1C0F331B78B54A5B01D31877
S11342005B68802212061A43B1494301CB185A60F5
S11342103B1C0F3318783B1C0F331B78AC4A5B01F3
S1134220D31810335B68802212061A43A84943014D
S1134230CB1810335A6021E03B1C0F3318783B1C19
S11342400F331B78A24A5B01D3185B685B005A08E2
S11342509F494301CB185A603B1C0F3318783B1C11
S11342600F331B789A4A5B01D31810335B685B00E9
S11342705A0897494301CB1810335A603B1C0F333B
S11342801B783A685278111C07220A40D1B2904A2E
S11342905B01D31807220A40120758688D49014070
S11342A00A435A603B1C0F331B783A685278111C3E
S11342B007220A40D1B2864A5B01D3181033072281
S11342C00A4012075868834901400A435A60002390
S11342D087E13B1C0E331B78002B2ED07B681B68B8
S11342E03A1C0F32127808325201D35CDBB21A1C2A
S11342F0702313401FD17B681A683B1C0F33187856
S11343007B681B68391C0F31097808314901CB5C83
S1134310DBB220210B43D9B2031C08335B0199544F
S11343207B681A683B1C0F331B7808335B01D31876
S113433080221A7130E01C2353E17B681B683A1C0D
S11343400F32127808325201D35CDBB21A1C0723F5
S113435013401FD17B681A683B1C0F3318787B68A5
S11343601B68391C0F31097808314901CB5CDBB279
S113437002210B43D9B2031C08335B0199547B68B7
S11343801A683B1C0F331B7808335B01D318402297
S11343905A7101E01C2324E1CFE03B1C0E331B784F
S11343A0002B2ED07B681B683A1C0F32127808321F
S11343B05201D35CDBB21A1C702313401FD17B68FB
S11343C01A683B1C0F3318787B681B68391C0F3143
S11343D0097808314901CB5CDBB230210B43D9B2F7
S11343E0031C08335B0199547B681A683B1C0F3328
S11343F01B7808335B01D31880221A7130E01C2328
S1134400EFE07B681B683A1C0F32127808325201C5
S1134410D35CDBB21A1C072313401FD17B681A68D4
S11344203B1C0F3318787B681B68391C0F310978E3
S113443008314901CB5CDBB203210B43D9B2031C25
S113444008335B0199547B681A683B1C0F331B7853
S113445008335B01D31840225A7101E01C23C0E0E9
S11344606BE03B1C0E331B78002B35D07B681B683C
S11344703A1C0F32127808325201D35CDBB21A1C98
S1134480702313401FD17B681A683B1C0F331878C4
S11344907B681B68391C0F31097808314901CB5CF2
S11344A0DBB240210B43D9B2031C08335B0199549E
S11344B07B681A683B1C0F331B7808335B01D318E5
S11344C080221A7137E01C238BE0C046106800007C
S11344D0F40C0020FFFFFF8F7B681B683A1C0F322F
S11344E0127808325201D35CDBB21A1C0723134042
S11344F01FD17B681A683B1C0F3318787B681B68D4
S1134500391C0F31097808314901CB5CDBB2042135
S11345100B43D9B2031C08335B0199547B681A68B6
S11345203B1C0F331B7808335B01D31840225A71AC
S113453001E01C2355E000E0C0463B1C0F33187813
S11345403B1C0E331B783A685278111C07220A4030
S1134550D1B2264A4000C3181B01D31807220A40CF
S113456012075868224901400A435A603B689B7805
S1134570002B1BD03B1C0F331C783B1C0E331878CC
S11345803B1C0F3319783B1C0E331B78174A490028
S1134590CB181B01D3185B68802212061A431349F7
S11345A063001B181B01CB185A6019E03B1C0F3326
S11345B01C783B1C0E3318783B1C0F3319783B1CBA
S11345C00E331B78094A4900CB181B01D3185B68CA
S11345D05B005A08054963001B181B01CB185A607D
S11345E00023181CBD4605B090BDC046F40C002045
S11345F0FFFFFF8F80B584B000AF78600A1CFB1CFE
S11346001A703B1C0F33FA1C11780F220A401A70DF
S1134610FB1C1B785BB2002B14DA7B681A683B1C0A
S11346200F331B7808335B01D31880221A717B681F
S11346301A683B1C0F331B7808335B01D318022222
S1134640DA7113E07B681A683B1C0F331B7808335C
S11346505B01D31840225A717B681A683B1C0F33E4
S11346601B7808335B01D3180122DA71BD4604B00C
S113467080BDC04680B584B000AF78600A1CFB1CC6
S11346801A703B1C0F33FA1C11780F220A401A705F
S1134690FB1C1B785BB2002B10DA7B681A683B1C8E
S11346A00F331B7808335B01D3189B79DBB21A1CD8
S11346B0202313405A1E9341DBB20FE07B681A6833
S11346C03B1C0F331B7808335B01D3189B79DBB297
S11346D01A1C102313405A1E9341DBB2181CBD460A
S11346E004B080BD80B584B000AF78600A1CFB1CA8
S11346F01A703B1C0F33FA1C11780F220A401A70EF
S1134700FB1C1B785BB2002B0ADA7B681A683B1C23
S11347100F331B7808335B01D31820225A7109E048
S11347207B681A683B1C0F331B7808335B01D31872
S113473010225A71BD4604B080BDC04680B584B015
S113474000AF78600A1CFB1C1A703B1C0F33FA1C68
S113475011780F220A401A70FB1C1B785BB2002BE5
S11347603ADA7B681A683B1C0F331B7808335B0109
S1134770D3189B79DBB21A1C2023134066D07B68C4
S11347801A683B1C0F331B7808335B01D3182022B3
S11347901A717B681A683B1C0F331B7808335B0162
S11347A0D318DB79DBB21A1C402313404ED07B684C
S11347B01A683B1C0F331B7808335B01D318402263
S11347C0DA717B681A683B1C0F331B7808335B0172
S11347D0D31802221A7139E07B681A683B1C0F3324
S11347E01B7808335B01D3189B79DBB21A1C1023A6
S11347F013402BD07B681A683B1C0F331B7808339B
S11348005B01D31810221A717B681A683B1C0F33A2
S11348101B7808335B01D318DB79DBB21A1C202325
S1134820134013D07B681A683B1C0F331B78083382
S11348305B01D3182022DA717B681A683B1C0F33A2
S11348401B7808335B01D31801221A71BD4604B0EA
S113485080BDC04680B586B000AFF8607A603B602A
S11348603B1C0B330A1C1A70FB681B683A1C0B3286
S1134870127808325201D35CDBB21B091A1C0723DD
S11348801340DAB23B1C17331A703B1C17331B78E6
S1134890002B01D11C2331E03B1C0B331B787A68BD
S11348A018495B01CB1810331A603B1C0B331B787F
S11348B0144A5B01D31810335968134A0A405A60EA
S11348C03B1C0B331B783A6892B29204920C92B25E
S11348D00C495B01CB1810339204920C5968890B74
S11348E089030A435A60FB681A683B1C0B331B7824
S11348F008335B01D31880225A710023181CBD466B
S113490006B080BDF40C0020FF3F00F080B586B0F7
S113491000AFF8607A603B603B1C0B330A1C1A70D2
S1134920FB681B683A1C0B32127808325201D25CC5
S113493007231340DAB23B1C17331A703B1C17339E
S11349401B78002B01D11C232EE03B1C0B331A785F
S11349507968174B5201D1503B1C0B331B783A68D2
S113496092B29204920C92B211495B01CB18920458
S1134970920C920358680F4901400A435A603B1C49
S11349800B331B780A4A5B01D3185A68920B9203C3
S11349905A60FB681A683B1C0B331B7808335B01B5
S11349A0D31840221A710023181CBD4606B080BDDE
S11349B0F40C0020FF3F00F080B582B000AF7860B7
S11349C039603A680C4B1A600B4B59680B4A0A4021
S11349D0802189020A435A60074B5A68920B92035A
S11349E05A607B681A6882235B004021D1540023FB
S11349F0181CBD4602B080BDF40C0020FF3F00F03F
S1134A0080B584B000AFCC4B1B681A683B1C0833DC
S1134A10128C1A803B1C08331B88002B58D1C64BC0
S1134A201B681A68BB1D928B1A80C34B1A68AB2390
S1134A305B00D35ABA1D128813409AB2BE4B196850
S1134A40AA235B00C95A3B1D0A401A800023FB605D
S1134A503AE0BA4BFA685200D35ABA1D128813408E
S1134A609BB2002B07D0B44B1B681B68B34AF96890
S1134A7049008A5A9A83B14BFA685200D35A3A1DB4
S1134A80128813409BB2002B1BD0FB68062B0CD161
S1134A90AB4B1B899BB21B095B055B0D9BB21A1CBC
S1134AA080235B001A40A74B1A60A34B1B68FA686B
S1134AB02E329200D258A04B1968A24B081C191C24
S1134AC09047FB680133FB60FB68062BC1DD39E2CC
S1134AD03B1C0B3300221A702EE23B1C08331A884D
S1134AE03B1C0B331B781A410123134000D11CE2F9
S1134AF0914B1B681A683B1C0B331B7808335B0112
S1134B00D318DB79DAB2BB1D1A808B4B19683B1CB6
S1134B100B331A78B0235B008A18D3181B78BA1D9C
S1134B20128813409BB299B2834B18683B1C0B3319
S1134B301A78AC235B008218D3181B781A1C0B1C40
S1134B4013409AB23B1D1A80BB1D1A886023134080
S1134B5059D0794B1B681A683B1C0B331B780833FC
S1134B605B01D318DB79DBB21A1C4023134014D049
S1134B70714B1B681A683B1C0B331B7808335B01B1
S1134B80D3184022DA713B1C0B331B78802252422B
S1134B901343DAB26C4B9A711EE0674B1B681A68B8
S1134BA03B1C0B331B7808335B01D318DB79DBB276
S1134BB01A1C202313400FD05F4B1B681A683B1C40
S1134BC00B331B7808335B01D3182022DA715E4B58
S1134BD03A1C0B3212789A713B1D1A8860231340D9
S1134BE010D0554B19683B1C0B331A78DC23120187
S1134BF08A18D3185A68504B1968534B081C191C4F
S1134C0090479FE19EE1BB1D1A881023134038D0C2
S1134C10494B1B681A683B1C0B331B7808335B0138
S1134C20D3181022DA71444B19683B1C0B331A78E1
S1134C30B0235B008A18D3181B7810221340DBB210
S1134C40002B1DD03B1C0B331B783D4A5B01D31852
S1134C505B689B049B0C9BB21A1C3B4B1A80364B23
S1134C6019683B1C0B331A78D82312018A18D318FD
S1134C705A68314B1968344B081C191C904761E180
S1134C8060E1BB1D1A880C23134000D1C5E02A4BF8
S1134C901B681A683B1C0B331B7808335B01D31861
S1134CA0DB79DBB21A1C082313404FD0224B1B685C
S1134CB01A683B1C0B331B7808335B01D31808229A
S1134CC0DA713B1C0B331B781D4A5B01D318183374
S1134CD09B78DBB21A1C0223134013D03B1C0B330A
S1134CE01B783A1C0B321278154952018A18183273
S1134CF09278D2B202218A43D2B211495B01CB1815
S1134D0018339A703B1C0B331B7880225242134396
S1134D10DAB20D4B9A71084B1B681A683B1C0B33B3
S1134D201B7808335B01D318DB79DBB21A1C02232E
S1134D3013405BD006E1C04630070020FC6700004A
S1134D40F40C00203C070020400700207F4B1B6828
S1134D501A683B1C0B331B7808335B01D318DB79CF
S1134D60DBB21A1C0423134040D0784B1B681A682A
S1134D703B1C0B331B7808335B01D3180422DA7114
S1134D803B1C0B331B78724A5B01D31808339B78A6
S1134D90DBB21A1C0223134013D03B1C0B331B78C9
S1134DA03A1C0B3212786A4952018A1808329278F6
S1134DB0D2B202218A43D2B265495B01CB180833CF
S1134DC09A70644B3A1C0B3212789A715F4B1B68D1
S1134DD01A683B1C0B331B7808335B01D318DB794F
S1134DE0DBB21A1C0123134000D0ABE03B1D1A8830
S1134DF00C23134010D0554B19683B1C0B331A7805
S1134E00D42312018A18D3185A68504B1968514B8D
S1134E10081C191C904795E094E0BB1D1A880323D5
S1134E20134000D181E0494B1B681A683B1C0B33CB
S1134E301B7808335B01D318DB79DBB21A1C02231D
S1134E40134022D0414B1B681A683B1C0B331B7860
S1134E5008335B01D3180222DA713B1C0B331B7835
S1134E60802252421343DAB23A4B9A713B1C0B3301
S1134E701B78374A5B01D31810335B689B049B0C87
S1134E809BB21A1C334B5A8039E0304B1B681A68AA
S1134E903B1C0B331B7808335B01D318DB79DBB283
S1134EA01A1C012313402AD0284B1B681A683B1C88
S1134EB00B331B7808335B01D3180122DA71254BBD
S1134EC03A1C0B3212789A713B1C0B331B78204A24
S1134ED05B01D3185B689B049B0C9BB21A1C1D4B93
S1134EE01A803B1C0B331B78194A5B01D3185B688F
S1134EF09B0B9B049B0C9BB21A1C164B9A803B1D6C
S1134F001A88032313400FD0104B1A683B1C0B3331
S1134F101B780D331B01D3185A680C4B19680D4BC1
S1134F20081C191C90470DE00CE03B1C0B331A784D
S1134F303B1C0B3301321A703B1C0B331B78072BC1
S1134F4000D8CAE5BD4604B080BDC0463007002085
S1134F50F40C00204007002080B582B000AF7860D8
S1134F607B681A687B681B681B78DBB202210B43E1
S1134F70DBB21370C0467B681B689B78DBB2022BE4
S1134F80F9D0BD4602B080BD80B500AF074B1B68A9
S1134F901B681B78DBB2DB09DBB2002B02D0044BAD
S1134FA0984701E0034B9847BD4680BD3007002079
S1134FB019370000014A000080B582B000AF786064
S1134FC07B6800221A707B6801225A707B68002279
S1134FD09A707B680122DA70BD4602B080BDC0467B
S1134FE080B58CB000AFF860B9607A60BB4B00222A
S1134FF01A60BB4BFA681A60FB68BA681A60012031
S11350002021B84B98473B1C1833181CB64B9847C3
S11350103B1C183306221A703B1C18331820191C29
S1135020B24B98473B1C183306221A703B1C1833AA
S11350301920191CAD4B98473B1C1433181CAC4B5E
S113504098477B689A783B1C14331A703B1C1433C2
S11350500620191CA74B98470620A74B9847BB6806
S11350601A7801210A431A70C046BB689A78012352
S11350701340DBB2002BF8D1A04BDA7803218A432A
S113508002210A43DA709D4BDA780C218A43082105
S11350900A43DA709A4B1B685A0B1F2313407B6236
S11350A07B6A1F2B01D105237B627B6ADBB21A1C4E
S11350B01F231340D9B2BB681F220A409201188DE6
S11350C0904901400A431A858D4B1B689A0C1F2393
S11350D013403B623B6A1F2B01D11D233B623B6A99
S11350E0DBB21A1C1F231340D9B2BB681F220A402B
S11350F0198D1F2081430A431A85814B1B68DA0DE1
S113510007231340FB61FB69072B01D10323FB61D8
S1135110FB69DBB21A1C07231340D9B2BB68072210
S11351200A401203188D784901400A431A857B68A6
S11351301A78BB68D20118787F2101400A431A709B
S11351407B685978BB6801220A40920019780420D0
S113515081430A431A706D4ABB685A627B68DB78E4
S1135160012B06D1FB681B681A890C218A431A811A
S11351700BE07B68DB78002B07D1FB681B681A897E
S11351800C218A4304210A431A81604A80235B006C
S1135190101C00211A1C5E4B98470023FB6208E098
S11351A0FA68FB6A9B00D31800225A60FB6A013339
S11351B0FB62FB6A072BF3D90023FB6215E0002393
S11351C0BB620CE0FA68FB6A9900BB6ACB1808332F
S11351D09B00D31800225A60BB6A0133BB62BB6ACE
S11351E0032BEFD9FB6A0133FB62FB6A072BE6D979
S11351F0FA68A4230021D154FA68A5230021D154CC
S11352000023FB6210E0F968A023FA6A8A18D31815
S113521000229A71F968A823FA6A8A18D31800221E
S11352209A71FB6A0133FB62FB6A072BEBD90023FB
S1135230FB6208E0FB68FA6A2E3292000021D1502A
S1135240FB6A0133FB62FB6A062BF3D90023FB6282
S113525015E00023BB620CE0FA68FB6A9900BB6AA4
S1135260CB1834339B00D31800225A60BB6A013335
S1135270BB62BB6A032BEFD9FB6A0133FB62FB6A97
S1135280072BE6D9FA68AA235B000021D152FA68F9
S1135290AB235B000021D1520023BB6212E0F9680A
S11352A0AC235B00BA6A8A18D31800221A70F96812
S11352B0B0235B00BA6A8A18D31800221A70BB6A3A
S11352C00133BB62BB6A072BE9D90720114B98470E
S11352D00023181CBD460CB080BDC0464807002002
S11352E03007002069360000C53600002163000045
S11352F0553600003D6000007D6000000050004114
S1135300246080003FF8FFFFFF8FFFFFF40C0020B4
S113531093670000ED36000080B584B000AF021C36
S1135320FB1D1A703B1C0F33FA1D127852091A70B8
S11353303B1C0F331B78002B0BD1084BBB603B1C71
S11353400F331B789B001022D219D318083B1B681B
S113535000E00023181CBD4604B080BD00180040C6
S113536080B584B000AF021CFB1D1A70FB1D1B78B6
S1135370181C0C4B9847031CFB60FB1D1A781F2359
S113538013400122111C99400B1CBB60FB681B6974
S1135390BA6813405A1E9341DBB2181CBD4604B0D0
S11353A080BDC0461953000080B584B000AF021C14
S11353B0FB1D1A70FB1D1B78181C094B9847031C16
S11353C0FB60FB1D1A781F2313400122111C994016
S11353D00B1CBB60FB68BA681A61BD4604B080BD93
S11353E01953000080B500AF154B00221A7021E05C
S11353F0134B1B78181C134B9847031C002B13D01A
S11354000F4B1B78181C104B98470D4B1B781A1C1C
S11354100E4B9200D358002B06D0094B1B781A1C54
S11354200A4B9200D3589847054B1B780133DAB2E4
S1135430034B1A70024B1B780F2BD9D9BD4680BD84
S1135440F40D002061530000A9530000340900202A
S113545080B584B000AFF860B9607A603B60364BC9
S11354601B78DBB25BB2002B32DA334B1B781A1C8D
S11354706023134009D1304B5B78062B05D17B6840
S1135480181C2E4B9847031C52E02B4B1B781A1CFC
S113549060231340202B1BD1274B5B78022B07D0B2
S11354A0032B0DD0012B13D13B689847031C3FE01D
S11354B0214BFA689A60204B01229A81012337E03C
S11354C01D4BBA689A601C4B01229A8101232FE07C
S11354D0194B1B78DBB25BB2002B28DB164B1B7815
S11354E01A1C60231340202B21D1134B5B780A2B09
S11354F007D00B2B0ED0092B19D13B689847031CFE
S113550016E00D4B5B881B0A9BB2DAB2FB681A707B
S113551001230DE0084BDB88002B01D0002307E0BA
S1135520054B5B88DAB2BB681A70012300E00023E4
S1135530181CBD4604B080BD9C0C002041550000E1
S113554080B584B000AF7860224B9847031C0933C0
S1135550FB60FB685B78212B01D0002336E01E4BF7
S11355605B881B0A9BB2DBB2212B10D11A4BFA6861
S11355709A60FB681B78184AD28898B291B2884224
S113558000D9131C9AB2144B9A8101231EE0FB68C4
S11355909A79114B5B881B0A9BB2DBB29A4214D1F5
S11355A00D4B7A689A60FB68DA791B7A1B02134305
S11355B09BB2094AD28898B291B2884200D9131C8E
S11355C09AB2054B9A81012300E00023181CBD46C2
S11355D004B080BD050F00009C0C002080B500AF16
S11355E0BD4680BD80B582B000AF0F4B1B68002B59
S11355F012D1EFF310837B607B68002B09D172B664
S1135600BFF35F8F094B00221A70094B01221A70F5
S113561002E0074B00221A70034B1B685A1C024B12
S11356201A60BD4602B080BD4C070020B4030020C0
S11356305007002080B500AF0A4B1B685A1E094B67
S11356401A60084B1B68002B0AD1074B1B78DBB28E
S1135650002B05D0054B01221A70BFF35F8F62B691
S1135660BD4680BD4C07002050070020B403002035
S113567080B582B000AF78607B6801225A607B6895
S113568000225A707B6806221A707B6800221A7204
S11356907B6800225A72BD4602B080BD80B582B0DC
S11356A000AF78607B6803221A707B6800225A700E
S11356B07B6801229A70BD4602B080BD80B582B07D
S11356C000AF78607B6800221A707B6800225A80E1
S11356D07B6800229A807B6800229A717B68002292
S11356E0DA717B6801225A707B6807221A727B6820
S11356F03F225A817B6801221A737B680122DA8176
S11357007B6806221A82BD4602B080BD80B582B095
S113571000AF021CFB1D1A70034BFA1D12781A729B
S1135720BD4602B080BDC0460004004080B582B0D2
S113573000AF0A1CFB1D011C1970BB1D1A70FB1D58
S11357401B78012B08D0022B0BD0002B0ED10B4B56
S1135750BA1D12785A720BE0084BBA1D12789A726D
S113576006E0064BBA1D1278DA7201E0172300E056
S11357700023181CBD4602B080BDC0460004004092
S113578080B582B000AF021CFB1D1A70084BFA1DD5
S113579011780F220A40D1B20F220A4052005968F0
S11357A01E2081430A435A60BD4602B080BDC046F4
S11357B00040004180B500AFC046034BDA681023B7
S11357C01340FAD0BD4680BD0008004080B500AF4C
S11357D00C4A0D4B1B689BB280218B439BB2938474
S11357E00A4B9847074B084A9268DA62054B064A07
S11357F052689A62034A044B1B689BB29384BD4669
S113580080BDC0460008004054070020B557000082
S113581080B582B000AF021CFB1D1A70FB1D1B7803
S1135820082B43D89A00244BD3181B689F46234B5C
S11358301B693CE0224B1B6A1B0A1A1C03231340FE
S1135840DBB2204A111CD9400B1C30E080231B0220
S11358502DE080231B022AE0184B5B6927E0174BDD
S11358601A680223134001D1002320E0164B984705
S1135870124B1A680423134009D00020134B984795
S1135880021C0E4B9B681B041B0C53430FE0104B74
S11358900DE00B4A5023D35CDBB21A1C04231340E3
S11358A001D1002303E0054BDB6800E00023181C52
S11358B0BD4602B080BDC0462468000054070020E5
S11358C00008004000127A00B5570000596100003A
S11358D0006CDC0280B584B000AF7860164B1B6AA4
S11358E0FB607B681B781A1C03231340D9B23B1C52
S11358F00D3303220A401978032081430A431A70A6
S11359007B689A783B1C0C33D20118787F210140C4
S11359100A431A707B6859783B1C0C3301220A40F5
S113592092011978402081430A431A70024BFA68A5
S11359301A62BD4604B080BD0008004080B582B044
S113594000AF78607B681B7A9B021B041A0C7B688F
S11359505B899B059B0D1A43224B5A607B689A799D
S11359607B68DB791343DBB21A1C7B685B881A43C0
S11359707B689B881A437B685B78DB011A43194B6D
S11359801A607B681B78042B16D17B681B7B9B06F3
S11359901A1C7B68DB891B04191C134B0B401A432C
S11359A07B681B8A1A430F4B9A600E4B1A687B68FC
S11359B01B781A430B4B1A607B681B78202B0ED183
S11359C07B681B8A1A1C074B9A60064B1A687B6813
S11359D01B7813438022D2001A43024B1A60BD463F
S11359E002B080BD540700200000FF0380B582B0E0
S11359F000AF021CFB1D1A70FB1D1B78082B3BD843
S1135A009A00214BD3181B689F46204B1F4A126AE9
S1135A1002210A431A62002331E01C4B1B4A92699B
S1135A2002210A439A6129E0184B184A128A92B259
S1135A3002210A4392B21A8220E0144B134A928A3A
S1135A4092B202210A4392B29A8217E0104B1B6869
S1135A5002221A430E4B1A600E4B98470EE00B4A73
S1135A600A494423CB5CDBB202210B43D9B2442361
S1135A70D15403E0002302E0172300E00023181CA4
S1135A80BD4602B080BDC046486800000008004022
S1135A9054070020CD57000080B584B000AF021C2D
S1135AA0FB1D1A700023FB60FB1D1B78082B21D8FB
S1135AB09A00184BD3181B689F460823FB601BE011
S1135AC00423FB6018E00123FB6015E00223FB6064
S1135AD012E01023FB600FE00F4A5023D35CDBB2CB
S1135AE01A1C03231340033B5A425341DBB20CE01C
S1135AF001230AE0002308E0074BDB68FA681A4038
S1135B00FB68D31A5A425341DBB2181CBD4604B099
S1135B1080BDC0466C6800000008004080B582B0BB
S1135B2000AF3B1C01221A7000237B6009E07B68F4
S1135B30DAB23B1C101C191C054B98477B680133D7
S1135B407B607B68242BF2D9BD4602B080BDC04681
S1135B503D60000080B5A6B000AF5C4BC222D2000D
S1135B609A6002205A4B98475A4B98473B1C803303
S1135B70181C594B98473B1C803320221A703B1C3D
S1135B80803300225A70554B1B689B0E9422D21905
S1135B9013609422D21913683F2B03D11F2394223C
S1135BA0D21913609422D2191368DAB23B1C8033E1
S1135BB01A723B1C803300225A803B1C8033002223
S1135BC0DA713B1C803300229A713B1C8033002223
S1135BD09A803B1C803307221A733B1C80333F227C
S1135BE0DA813B1C80333E4A5A813B1C80330022BD
S1135BF05A803B1C80330822DA713B1C803300221C
S1135C009A713B1C8033802252009A803B1C803363
S1135C10344A1A823B1C8033181C334B98473B1C74
S1135C207C33181C314B98473B1C7C3300221A7080
S1135C303B1C7C3301229A703B1C7C3300225A703B
S1135C403B1C7C33181C2A4B98470620294B984749
S1135C50294B98470720274B9847C0460720274BD6
S1135C609847031C01225340DBB2002BF6D1174B9B
S1135C709A8C80210A439A840020214B9847002063
S1135C800021204B9847012000211E4B98470220F9
S1135C9000211C4B98473B1C181C1B4B98473B1C72
S1135CA007221A703B1C01225A603B1C00221A7204
S1135CB03B1C00225A723B1C0020191C134B9847B2
S1135CC00020134B9847BD4626B080BD0008004015
S1135CD0815700001D5B0000BD5600002460800059
